{
    "_format": "hh-sol-artifact-1",
    "contractName": "BuyMeACoffee",
    "sourceName": "contracts/BuyMeACoffee.sol",
    "abi": [
        {
            "inputs": [],
            "stateMutability": "nonpayable",
            "type": "constructor"
        },
        {
            "anonymous": false,
            "inputs": [
                {
                    "indexed": true,
                    "internalType": "address",
                    "name": "from",
                    "type": "address"
                },
                {
                    "indexed": false,
                    "internalType": "uint256",
                    "name": "timestamp",
                    "type": "uint256"
                },
                {
                    "indexed": false,
                    "internalType": "string",
                    "name": "name",
                    "type": "string"
                },
                {
                    "indexed": false,
                    "internalType": "string",
                    "name": "message",
                    "type": "string"
                },
                {
                    "indexed": false,
                    "internalType": "uint256",
                    "name": "amount",
                    "type": "uint256"
                }
            ],
            "name": "NewMemo",
            "type": "event"
        },
        {
            "inputs": [
                {
                    "internalType": "string",
                    "name": "_name",
                    "type": "string"
                },
                {
                    "internalType": "string",
                    "name": "_message",
                    "type": "string"
                }
            ],
            "name": "buyCoffee",
            "outputs": [],
            "stateMutability": "payable",
            "type": "function"
        },
        {
            "inputs": [
                {
                    "internalType": "address",
                    "name": "newWithdrawalAddress",
                    "type": "address"
                }
            ],
            "name": "changeWithdrawalAddress",
            "outputs": [],
            "stateMutability": "nonpayable",
            "type": "function"
        },
        {
            "inputs": [],
            "name": "getMemos",
            "outputs": [
                {
                    "components": [
                        {
                            "internalType": "address",
                            "name": "from",
                            "type": "address"
                        },
                        {
                            "internalType": "uint256",
                            "name": "timestamp",
                            "type": "uint256"
                        },
                        {
                            "internalType": "string",
                            "name": "name",
                            "type": "string"
                        },
                        {
                            "internalType": "string",
                            "name": "message",
                            "type": "string"
                        },
                        {
                            "internalType": "uint256",
                            "name": "amount",
                            "type": "uint256"
                        }
                    ],
                    "internalType": "struct BuyMeACoffee.Memo[]",
                    "name": "",
                    "type": "tuple[]"
                }
            ],
            "stateMutability": "view",
            "type": "function"
        },
        {
            "inputs": [],
            "name": "withdrawTips",
            "outputs": [],
            "stateMutability": "nonpayable",
            "type": "function"
        }
    ],
    "bytecode": "0x608060405234801561001057600080fd5b5033600160006101000a81548173ffffffffffffffffffffffffffffffffffffffff021916908373ffffffffffffffffffffffffffffffffffffffff16021790555033600260006101000a81548173ffffffffffffffffffffffffffffffffffffffff021916908373ffffffffffffffffffffffffffffffffffffffff160217905550610e9d806100a26000396000f3fe60806040526004361061003f5760003560e01c80631f4e2a5314610044578063204206e11461006d5780633aaa74b214610089578063865c5172146100a0575b600080fd5b34801561005057600080fd5b5061006b600480360381019061006691906105ec565b6100cb565b005b6100876004803603810190610082919061075f565b61019f565b005b34801561009557600080fd5b5061009e61032b565b005b3480156100ac57600080fd5b506100b561038d565b6040516100c291906109bd565b60405180910390f35b600160009054906101000a900473ffffffffffffffffffffffffffffffffffffffff1673ffffffffffffffffffffffffffffffffffffffff163373ffffffffffffffffffffffffffffffffffffffff161461015b576040517f08c379a000000000000000000000000000000000000000000000000000000000815260040161015290610a62565b60405180910390fd5b80600260006101000a81548173ffffffffffffffffffffffffffffffffffffffff021916908373ffffffffffffffffffffffffffffffffffffffff16021790555050565b600034116101e2576040517f08c379a00000000000000000000000000000000000000000000000000000000081526004016101d990610ace565b60405180910390fd5b60006040518060a001604052803373ffffffffffffffffffffffffffffffffffffffff16815260200142815260200184815260200183815260200134815250908060018154018082558091505060019003906000526020600020906005020160009091909190915060008201518160000160006101000a81548173ffffffffffffffffffffffffffffffffffffffff021916908373ffffffffffffffffffffffffffffffffffffffff1602179055506020820151816001015560408201518160020190816102b09190610cfa565b5060608201518160030190816102c69190610cfa565b506080820151816004015550503373ffffffffffffffffffffffffffffffffffffffff167fe6609e3b36bf3d0e12aa4c5b518055c81016d4f091e4fa2be01ff5f2690512bb4284843460405161031f9493929190610e14565b60405180910390a25050565b600260009054906101000a900473ffffffffffffffffffffffffffffffffffffffff1673ffffffffffffffffffffffffffffffffffffffff166108fc479081150290604051600060405180830381858888f1935050505061038b57600080fd5b565b60606000805480602002602001604051908101604052809291908181526020016000905b8282101561057157838290600052602060002090600502016040518060a00160405290816000820160009054906101000a900473ffffffffffffffffffffffffffffffffffffffff1673ffffffffffffffffffffffffffffffffffffffff1673ffffffffffffffffffffffffffffffffffffffff1681526020016001820154815260200160028201805461044490610b1d565b80601f016020809104026020016040519081016040528092919081815260200182805461047090610b1d565b80156104bd5780601f10610492576101008083540402835291602001916104bd565b820191906000526020600020905b8154815290600101906020018083116104a057829003601f168201915b505050505081526020016003820180546104d690610b1d565b80601f016020809104026020016040519081016040528092919081815260200182805461050290610b1d565b801561054f5780601f106105245761010080835404028352916020019161054f565b820191906000526020600020905b81548152906001019060200180831161053257829003601f168201915b50505050508152602001600482015481525050815260200190600101906103b1565b50505050905090565b6000604051905090565b600080fd5b600080fd5b600073ffffffffffffffffffffffffffffffffffffffff82169050919050565b60006105b98261058e565b9050919050565b6105c9816105ae565b81146105d457600080fd5b50565b6000813590506105e6816105c0565b92915050565b60006020828403121561060257610601610584565b5b6000610610848285016105d7565b91505092915050565b600080fd5b600080fd5b6000601f19601f8301169050919050565b7f4e487b7100000000000000000000000000000000000000000000000000000000600052604160045260246000fd5b61066c82610623565b810181811067ffffffffffffffff8211171561068b5761068a610634565b5b80604052505050565b600061069e61057a565b90506106aa8282610663565b919050565b600067ffffffffffffffff8211156106ca576106c9610634565b5b6106d382610623565b9050602081019050919050565b82818337600083830152505050565b60006107026106fd846106af565b610694565b90508281526020810184848401111561071e5761071d61061e565b5b6107298482856106e0565b509392505050565b600082601f83011261074657610745610619565b5b81356107568482602086016106ef565b91505092915050565b6000806040838503121561077657610775610584565b5b600083013567ffffffffffffffff81111561079457610793610589565b5b6107a085828601610731565b925050602083013567ffffffffffffffff8111156107c1576107c0610589565b5b6107cd85828601610731565b9150509250929050565b600081519050919050565b600082825260208201905092915050565b6000819050602082019050919050565b61080c816105ae565b82525050565b6000819050919050565b61082581610812565b82525050565b600081519050919050565b600082825260208201905092915050565b60005b8381101561086557808201518184015260208101905061084a565b60008484015250505050565b600061087c8261082b565b6108868185610836565b9350610896818560208601610847565b61089f81610623565b840191505092915050565b600060a0830160008301516108c26000860182610803565b5060208301516108d5602086018261081c565b50604083015184820360408601526108ed8282610871565b915050606083015184820360608601526109078282610871565b915050608083015161091c608086018261081c565b508091505092915050565b600061093383836108aa565b905092915050565b6000602082019050919050565b6000610953826107d7565b61095d81856107e2565b93508360208202850161096f856107f3565b8060005b858110156109ab578484038952815161098c8582610927565b94506109978361093b565b925060208a01995050600181019050610973565b50829750879550505050505092915050565b600060208201905081810360008301526109d78184610948565b905092915050565b600082825260208201905092915050565b7f596f7520617265206e6f7420746865206f776e6572206f66207468697320636f60008201527f6e74726163740000000000000000000000000000000000000000000000000000602082015250565b6000610a4c6026836109df565b9150610a57826109f0565b604082019050919050565b60006020820190508181036000830152610a7b81610a3f565b9050919050565b7f43616e27742062757920636f6666656520776974682030206574680000000000600082015250565b6000610ab8601b836109df565b9150610ac382610a82565b602082019050919050565b60006020820190508181036000830152610ae781610aab565b9050919050565b7f4e487b7100000000000000000000000000000000000000000000000000000000600052602260045260246000fd5b60006002820490506001821680610b3557607f821691505b602082108103610b4857610b47610aee565b5b50919050565b60008190508160005260206000209050919050565b60006020601f8301049050919050565b600082821b905092915050565b600060088302610bb07fffffffffffffffffffffffffffffffffffffffffffffffffffffffffffffffff82610b73565b610bba8683610b73565b95508019841693508086168417925050509392505050565b6000819050919050565b6000610bf7610bf2610bed84610812565b610bd2565b610812565b9050919050565b6000819050919050565b610c1183610bdc565b610c25610c1d82610bfe565b848454610b80565b825550505050565b600090565b610c3a610c2d565b610c45818484610c08565b505050565b5b81811015610c6957610c5e600082610c32565b600181019050610c4b565b5050565b601f821115610cae57610c7f81610b4e565b610c8884610b63565b81016020851015610c97578190505b610cab610ca385610b63565b830182610c4a565b50505b505050565b600082821c905092915050565b6000610cd160001984600802610cb3565b1980831691505092915050565b6000610cea8383610cc0565b9150826002028217905092915050565b610d038261082b565b67ffffffffffffffff811115610d1c57610d1b610634565b5b610d268254610b1d565b610d31828285610c6d565b600060209050601f831160018114610d645760008415610d52578287015190505b610d5c8582610cde565b865550610dc4565b601f198416610d7286610b4e565b60005b82811015610d9a57848901518255600182019150602085019450602081019050610d75565b86831015610db75784890151610db3601f891682610cc0565b8355505b6001600288020188555050505b505050505050565b610dd581610812565b82525050565b6000610de68261082b565b610df081856109df565b9350610e00818560208601610847565b610e0981610623565b840191505092915050565b6000608082019050610e296000830187610dcc565b8181036020830152610e3b8186610ddb565b90508181036040830152610e4f8185610ddb565b9050610e5e6060830184610dcc565b9594505050505056fea264697066735822122050088ca28817b2cbf90eef568baf6bbbbd5bc676123b0ef27a942b9eace56a6864736f6c63430008110033",
    "linkReferences": {},
    "deployedLinkReferences": {}
}